:0400000042EF00F0DB
:100008003782E1CF1EF0E2CF1FF0D9CF20F0DACF50
:1000180021F0F3CF22F0F4CF23F0F6CF24F0F7CF7E
:1000280025F0F8CF26F0F5CF27F09EA01EEF00F0C0
:1000380020EF00F02CEF00F0600E086E000E096E45
:1000480009EC03F09E909D80FE0ECF6E700ECE6E72
:1000580027C0F5FF26C0F8FF25C0F7FF24C0F6FF2C
:1000680023C0F4FF22C0F3FF21C0DAFF20C0D9FF6C
:100078001FC0E2FF1EC0E1FF37921100CDEF07F06D
:10060000007E306D79335B5F707F7B771F4E3D4F8F
:100610004700000E156E20EE06F00850D92609504E
:10062000DA22DE2A000EDD2220EE04F00850D92660
:100630000950DA2210EE06F00850E1260950E222B5
:10064000DE50E65CDE50E658D8B029EF03F02BEF21
:1006500003F02DEF03F091EF05F020EE4AF0085083
:10066000D9260950DA22DF50D8A439EF03F03BEF46
:1006700003F090EF03F020EE4AF00850D92609501D
:10068000DA22010EDF6E000E1A6E1A50050D08C038
:100690000AF009C00BF0F3500A26F4500B22120E98
:1006A0000A24D96E000E0B20DA6EDF500C6E010E9C
:1006B0000D6E0C2A5EEF03F0D8900D360C2E5CEF19
:1006C00003F01A50050D08C00EF009C00FF0F350EA
:1006D0000E26F4500F22100E0E24D96E000E0F209D
:1006E000DA6EDECF10F0DDCF11F010C0D9FF11C0EF
:1006F000DAFF0D50DF121A2A070E1A6482EF03F098
:1007000084EF03F045EF03F020EE06F00850D92601
:100710000950DA22000EDE6E000EDD6E91EF05F05C
:1007200020EE4AF00850D9260950DA22000EDF6E7A
:1007300020EE06F00850D9260950DA22000EDE6EAF
:10074000000EDD6E000E1B6E1B50050D08C00AF07A
:1007500009C00BF0F3500A26F4500B223A0E0A247B
:10076000D96E000E0B20DA6EDF500C6E010E0D6E8E
:100770000C2ABDEF03F0D8900D360C2EBBEF03F022
:100780001B50050D08C00EF009C00FF0F3500E26E7
:10079000F4500F22380E0E24D96E000E0F20DA6EA0
:1007A000DECF10F0DDCF11F010C0D9FF11C0DAFF9D
:1007B0000D50DF121B2A030E1B64E1EF03F0E3EF81
:1007C00003F0A4EF03F020EE08F00850D9260950FA
:1007D000DA22DF500A6E0A50016E026AFF0E046EC2
:1007E000FB0E036EBAEC07F008C00BF009C00CF06A
:1007F00001500B2602500C22490E0B24D96E000E1C
:100800000C20DA6EDF500D6E010E0E6E0D2A0BEF0E
:1008100004F0D8900E360D2E09EF04F00E50FF0AAA
:100820000F6E20EE08F00850D9260950DA22DF506A
:10083000106E1050016E026AFF0E046EFB0E036E06
:10084000BAEC07F008C011F009C012F001501126EF
:1008500002501222470E1124D96E000E1220DA6EB9
:10086000DECF13F0DDCF14F013C0D9FF14C0DAFFD0
:100870000F50DF16000E1C6E1C50050D08C00AF04C
:1008800009C00BF0F3500A26F4500B22120E0A2472
:10089000D96E000E0B20DA6EDF500C6E010E0D6E5D
:1008A0000C2A55EF04F0D8900D360C2E53EF04F0BF
:1008B0001C50050D08C00EF009C00FF0F3500E26B5
:1008C000F4500F22100E0E24D96E000E0F20DA6E97
:1008D000DECF10F0DDCF11F010C0D9FF11C0DAFF6C
:1008E0000D50DF121C2A070E1C6479EF04F07BEF19
:1008F00004F03CEF04F0000E196E195008240A6E43
:10090000000E09200B6E0A0E0A24D96E000E0B2071
:10091000DA6EDF50D8B48FEF04F091EF04F093EF6C
:1009200004F0010E156E192A030E19649AEF04F0F3
:100930009CEF04F07DEF04F01550D8B4A2EF04F062
:10094000A4EF04F0BCEF04F020EE08F00850D92624
:100950000950DA22DF500A6E0A5008240B6E000E8E
:1009600009200C6E0A0E0B24D96E000E0C20DA6ED4
:10097000DF50186E25EF05F008C0D9FF09C0DAFF77
:1009800010EE02F00850E1260950E222DECFE6FF29
:10099000DDCFE5FF000E166EE9EF04F020EE02F069
:1009A0000850D9260950DA22DECF01F0DDCF02F05F
:1009B000000E046E0A0E036E4EEC07F020EE02F0FD
:1009C0000850D9260950DA2201C0DEFF02C0DDFF3F
:1009D000162A20EE08F00850D9260950DA22DE50F7
:1009E000165CD8A0F6EF04F0F8EF04F0CEEF04F0B8
:1009F00020EE02F00850D9260950DA22DECF01F0AD
:100A0000DDCF02F0000E046E0A0E036E88EC07F0D4
:100A100020EE02F00850D9260950DA2201C0DEFF8C
:100A200002C0DDFF20EE02F00850D9260950DA227C
:100A3000DECF0AF0DDCF0BF0010E0A24F66E060EB3
:100A40000B20F76E0800F5CF18F0000E1D6E400E5B
:100A5000176E185017140009D8B431EF05F033EFB2
:100A600005F06CEF05F01D50050D08C00AF009C037
:100A70000BF0F3500A26F4500B22120E0A24D96E02
:100A8000000E0B20DA6EDF500C6E010E0D6E0C2A7C
:100A90004CEF05F0D8900D360C2E4AEF05F00D50B6
:100AA000FF0A0E6E1D50050D08C00FF009C010F0B2
:100AB000F3500F26F4501022100E0F24D96E000EA2
:100AC0001020DA6EDECF11F0DDCF12F011C0D9FFA9
:100AD00012C0DAFF0E50DF161D2AD8901732060E0C
:100AE0001D6475EF05F077EF05F029EF05F020EEB6
:100AF00008F00850D9260950DA22DFCF0AF0010E9B
:100B0000DF26040E0A6487EF05F089EF05F091EF08
:100B100005F020EE08F00850D9260950DA22000E20
:100B2000DF6E1200000E336E3350050D28C02AF020
:100B300029C02BF0F3502A26F4502B223A0E2A24F7
:100B4000D96E000E2B20DA6EDF502C6E010E2D6E4A
:100B50002C2AADEF05F0D8902D362C2EABEF05F0FA
:100B60002D50FF0A2E6E3350050D28C02FF029C0DE
:100B700030F0F3502F26F4503022360E2F24D96E49
:100B8000000E3020DA6EDECF31F0DDCF32F031C032
:100B9000D9FF32C0DAFF2E50DF163350050D28C0C2
:100BA0002AF029C02BF0F3502A26F4502B223A0EBB
:100BB0002A24D96E000E2B20DA6EDF502C6E010E27
:100BC0002D6E2C2AE6EF05F0D8902D362C2EE4EF72
:100BD00005F03350050D28C02EF029C02FF0F3503A
:100BE0002E26F4502F22380E2E24D96E000E2F20E0
:100BF000DA6EDECF30F0DDCF31F030C0D9FF31C05A
:100C0000DAFF2D50DF12332A030E33640AEF06F0A9
:100C10000CEF06F094EF05F0000E346E3450050D25
:100C200028C02AF029C02BF0F3502A26F4502B229A
:100C3000120E2A24D96E000E2B20DA6EDF502C6E95
:100C4000010E2D6E2C2A27EF06F0D8902D362C2E73
:100C500025EF06F02D50FF0A2E6E3450050D28C0EA
:100C60002FF029C030F0F3502F26F45030220E0E12
:100C70002F24D96E000E3020DA6EDECF31F0DDCFBA
:100C800032F031C0D9FF32C0DAFF2E50DF163450B7
:100C9000050D28C02AF029C02BF0F3502A26F45065
:100CA0002B22120E2A24D96E000E2B20DA6EDF5072
:100CB0002C6E010E2D6E2C2A60EF06F0D8902D368A
:100CC0002C2E5EEF06F02D50FF0A2E6E3450050DCF
:100CD00028C02FF029C030F0F3502F26F4503022D6
:100CE000100E2F24D96E000E3020DA6EDECF31F0D8
:100CF000DDCF32F031C0D9FF32C0DAFF2E50DF161F
:100D0000342A070E346487EF06F089EF06F00EEF01
:100D100006F01200700ED312D350FC0B0209D36EF2
:100D2000000E0F01386F000E396F000E3A6F000E83
:100D30003B6F000E3C6F000E616ECD9ACD98CD8654
:100D4000CD843F0ECD16CD80FE0ECF6E700ECE6ED2
:100D5000000EF26EF29A9E909D80F294F28EF28CCA
:100D6000000E0001AC6FAC51050D980EF324D96E46
:100D7000000EF420DA6E810EDE6E0F0EDD6EAC51C9
:100D8000050D960EF324D96E000EF420DA6E930E44
:100D9000DE6E0F0EDD6EAC51050D9A0EF324D96E8A
:100DA000000EF420DA6EACC0DFFFAC2B030EAC6596
:100DB000DCEF06F0DEEF06F0B3EF06F0000EAD6FED
:100DC000AD51050D700EF324D96E000EF420DA6ECD
:100DD000830EDE6E0F0EDD6EAD51050D6E0EF3242B
:100DE000D96E000EF420DA6E950EDE6E0F0EDD6EFB
:100DF000AD51050D720EF324D96E000EF420DA6E9B
:100E0000ADC0DFFFAD2B070EAD6509EF07F00BEFAF
:100E100007F0E0EF06F0000E656F0A0E646F600EDB
:100E2000286E000E296E92EC05F0938881B81BEFB6
:100E300007F01DEF07F028EF07F0770E00016D6F48
:100E40001F0E6C6F4E0E6B6F3D0E6A6F3EEF07F01C
:100E5000000E0001AB6F6A0EAB25D96EDA6A000E88
:100E6000DA22000EDF6EAB2B030EAB653AEF07F014
:100E70003CEF07F02BEF07F0604B612B020E366E54
:100E8000040E356EBA0EE82EFED7352EFCD7362E60
:100E9000FAD700D016EF07F042EF00F0000E066E12
:100EA000000E056E03500410D8B459EF07F05BEF45
:100EB00007F083EF07F0010E076E63EF07F0D8909D
:100EC00003360436072A04AE68EF07F06AEF07F02E
:100ED0005FEF07F0D890053606360350015C0450EA
:100EE0000258D8A076EF07F078EF07F07DEF07F013
:100EF0000350015E0450025A0580D8900432033238
:100F0000072E6AEF07F005C001F006C002F01200DC
:100F100003500410D8B48FEF07F091EF07F0B5EF4E
:100F200007F0010E056E99EF07F0D89003360436EE
:100F3000052A04AE9EEF07F0A0EF07F095EF07F04B
:100F40000350015C04500258D8A0A9EF07F0ABEFA2
:100F500007F0AFEF07F00350015E0450025AD8903B
:100F600004320332052EA0EF07F001C001F002C0E9
:100F700002F0120001500302F3CF05F0F4CF06F0A7
:100F800001500402F350062602500302F3500626D5
:100F900005C001F006C002F0120000EE60F04B0E3A
:100FA000EE6AE806FDE137903792000EF86E060E05
:080FB000F76E00018AEF06F064
:020000040020DA
:08000000FFFFFFFFFFFFFFFF00
:020000040030CA
:0E000000FF281F3CFFB581FF0FC00FE00F402F
:00000001FF
